{
  "_format": "hh-sol-artifact-1",
  "contractName": "LinkDOTSBT",
  "sourceName": "contracts/LinkDOTSBT.sol",
  "abi": [
    {
      "inputs": [],
      "stateMutability": "nonpayable",
      "type": "constructor"
    },
    {
      "anonymous": false,
      "inputs": [
        {
          "indexed": true,
          "internalType": "address",
          "name": "owner",
          "type": "address"
        },
        {
          "indexed": true,
          "internalType": "address",
          "name": "approved",
          "type": "address"
        },
        {
          "indexed": true,
          "internalType": "uint256",
          "name": "tokenId",
          "type": "uint256"
        }
      ],
      "name": "Approval",
      "type": "event"
    },
    {
      "anonymous": false,
      "inputs": [
        {
          "indexed": true,
          "internalType": "address",
          "name": "owner",
          "type": "address"
        },
        {
          "indexed": true,
          "internalType": "address",
          "name": "operator",
          "type": "address"
        },
        {
          "indexed": false,
          "internalType": "bool",
          "name": "approved",
          "type": "bool"
        }
      ],
      "name": "ApprovalForAll",
      "type": "event"
    },
    {
      "anonymous": false,
      "inputs": [
        {
          "indexed": true,
          "internalType": "address",
          "name": "from",
          "type": "address"
        },
        {
          "indexed": true,
          "internalType": "address",
          "name": "to",
          "type": "address"
        },
        {
          "indexed": true,
          "internalType": "uint256",
          "name": "tokenId",
          "type": "uint256"
        }
      ],
      "name": "Transfer",
      "type": "event"
    },
    {
      "inputs": [
        {
          "internalType": "address",
          "name": "to",
          "type": "address"
        },
        {
          "internalType": "uint256",
          "name": "tokenId",
          "type": "uint256"
        }
      ],
      "name": "approve",
      "outputs": [],
      "stateMutability": "nonpayable",
      "type": "function"
    },
    {
      "inputs": [
        {
          "internalType": "address",
          "name": "owner",
          "type": "address"
        }
      ],
      "name": "balanceOf",
      "outputs": [
        {
          "internalType": "uint256",
          "name": "",
          "type": "uint256"
        }
      ],
      "stateMutability": "view",
      "type": "function"
    },
    {
      "inputs": [
        {
          "internalType": "address",
          "name": "person",
          "type": "address"
        }
      ],
      "name": "checkDegreeOfPerson",
      "outputs": [
        {
          "internalType": "string",
          "name": "",
          "type": "string"
        }
      ],
      "stateMutability": "view",
      "type": "function"
    },
    {
      "inputs": [
        {
          "internalType": "string",
          "name": "tokenURI",
          "type": "string"
        }
      ],
      "name": "claimDegree",
      "outputs": [
        {
          "internalType": "uint256",
          "name": "",
          "type": "uint256"
        }
      ],
      "stateMutability": "nonpayable",
      "type": "function"
    },
    {
      "inputs": [
        {
          "internalType": "uint256",
          "name": "tokenId",
          "type": "uint256"
        }
      ],
      "name": "getApproved",
      "outputs": [
        {
          "internalType": "address",
          "name": "",
          "type": "address"
        }
      ],
      "stateMutability": "view",
      "type": "function"
    },
    {
      "inputs": [
        {
          "internalType": "address",
          "name": "owner",
          "type": "address"
        },
        {
          "internalType": "address",
          "name": "operator",
          "type": "address"
        }
      ],
      "name": "isApprovedForAll",
      "outputs": [
        {
          "internalType": "bool",
          "name": "",
          "type": "bool"
        }
      ],
      "stateMutability": "view",
      "type": "function"
    },
    {
      "inputs": [
        {
          "internalType": "address",
          "name": "to",
          "type": "address"
        }
      ],
      "name": "issueDegree",
      "outputs": [],
      "stateMutability": "nonpayable",
      "type": "function"
    },
    {
      "inputs": [
        {
          "internalType": "address",
          "name": "",
          "type": "address"
        }
      ],
      "name": "issuedDegrees",
      "outputs": [
        {
          "internalType": "bool",
          "name": "",
          "type": "bool"
        }
      ],
      "stateMutability": "view",
      "type": "function"
    },
    {
      "inputs": [],
      "name": "name",
      "outputs": [
        {
          "internalType": "string",
          "name": "",
          "type": "string"
        }
      ],
      "stateMutability": "view",
      "type": "function"
    },
    {
      "inputs": [
        {
          "internalType": "uint256",
          "name": "tokenId",
          "type": "uint256"
        }
      ],
      "name": "ownerOf",
      "outputs": [
        {
          "internalType": "address",
          "name": "",
          "type": "address"
        }
      ],
      "stateMutability": "view",
      "type": "function"
    },
    {
      "inputs": [
        {
          "internalType": "address",
          "name": "",
          "type": "address"
        }
      ],
      "name": "personToDegree",
      "outputs": [
        {
          "internalType": "string",
          "name": "",
          "type": "string"
        }
      ],
      "stateMutability": "view",
      "type": "function"
    },
    {
      "inputs": [
        {
          "internalType": "address",
          "name": "operator",
          "type": "address"
        },
        {
          "internalType": "bool",
          "name": "approved",
          "type": "bool"
        }
      ],
      "name": "setApprovalForAll",
      "outputs": [],
      "stateMutability": "nonpayable",
      "type": "function"
    },
    {
      "inputs": [
        {
          "internalType": "bytes4",
          "name": "interfaceId",
          "type": "bytes4"
        }
      ],
      "name": "supportsInterface",
      "outputs": [
        {
          "internalType": "bool",
          "name": "",
          "type": "bool"
        }
      ],
      "stateMutability": "view",
      "type": "function"
    },
    {
      "inputs": [],
      "name": "symbol",
      "outputs": [
        {
          "internalType": "string",
          "name": "",
          "type": "string"
        }
      ],
      "stateMutability": "view",
      "type": "function"
    },
    {
      "inputs": [
        {
          "internalType": "uint256",
          "name": "tokenId",
          "type": "uint256"
        }
      ],
      "name": "tokenURI",
      "outputs": [
        {
          "internalType": "string",
          "name": "",
          "type": "string"
        }
      ],
      "stateMutability": "view",
      "type": "function"
    },
    {
      "inputs": [
        {
          "internalType": "address",
          "name": "from",
          "type": "address"
        },
        {
          "internalType": "address",
          "name": "to",
          "type": "address"
        },
        {
          "internalType": "uint256",
          "name": "tokenId",
          "type": "uint256"
        }
      ],
      "name": "transferFrom",
      "outputs": [],
      "stateMutability": "nonpayable",
      "type": "function"
    }
  ],
  "bytecode": "0x60806040523480156200001157600080fd5b506040518060400160405280600a81526020017f4c696e6b444f54534254000000000000000000000000000000000000000000008152506040518060400160405280600781526020017f4c444f5453425400000000000000000000000000000000000000000000000000815250816000908051906020019062000096929190620000f9565b508060019080519060200190620000af929190620000f9565b50505033600760006101000a81548173ffffffffffffffffffffffffffffffffffffffff021916908373ffffffffffffffffffffffffffffffffffffffff1602179055506200020e565b8280546200010790620001a9565b90600052602060002090601f0160209004810192826200012b576000855562000177565b82601f106200014657805160ff191683800117855562000177565b8280016001018555821562000177579182015b828111156200017657825182559160200191906001019062000159565b5b5090506200018691906200018a565b5090565b5b80821115620001a55760008160009055506001016200018b565b5090565b60006002820490506001821680620001c257607f821691505b60208210811415620001d957620001d8620001df565b5b50919050565b7f4e487b7100000000000000000000000000000000000000000000000000000000600052602260045260246000fd5b612ca4806200021e6000396000f3fe608060405234801561001057600080fd5b50600436106101005760003560e01c80636352211e11610097578063b5d473da11610066578063b5d473da146102d1578063c87b56dd14610301578063e985e9c514610331578063f5caa7631461036157610100565b80636352211e1461023757806370a082311461026757806395d89b4114610297578063a22cb465146102b557610100565b806323b872dd116100d357806323b872dd1461019f5780632db2f478146101bb57806337f902f0146101eb57806349d89ea41461021b57610100565b806301ffc9a71461010557806306fdde0314610135578063081812fc14610153578063095ea7b314610183575b600080fd5b61011f600480360381019061011a9190611d33565b610391565b60405161012c9190612112565b60405180910390f35b61013d610473565b60405161014a919061212d565b60405180910390f35b61016d60048036038101906101689190611d9d565b610505565b60405161017a91906120f7565b60405180910390f35b61019d60048036038101906101989190611cf7565b61058a565b005b6101b960048036038101906101b49190611c6c565b6106a2565b005b6101d560048036038101906101d09190611d5c565b610702565b6040516101e2919061238f565b60405180910390f35b61020560048036038101906102009190611c07565b610871565b604051610212919061212d565b60405180910390f35b61023560048036038101906102309190611c07565b610911565b005b610251600480360381019061024c9190611d9d565b610a8f565b60405161025e91906120f7565b60405180910390f35b610281600480360381019061027c9190611c07565b610b41565b60405161028e919061238f565b60405180910390f35b61029f610bf9565b6040516102ac919061212d565b60405180910390f35b6102cf60048036038101906102ca9190611cbb565b610c8b565b005b6102eb60048036038101906102e69190611c07565b610ca1565b6040516102f8919061212d565b60405180910390f35b61031b60048036038101906103169190611d9d565b610d72565b604051610328919061212d565b60405180910390f35b61034b60048036038101906103469190611c30565b610ec4565b6040516103589190612112565b60405180910390f35b61037b60048036038101906103769190611c07565b610f58565b6040516103889190612112565b60405180910390f35b60007f7aa5391d000000000000000000000000000000000000000000000000000000007bffffffffffffffffffffffffffffffffffffffffffffffffffffffff1916827bffffffffffffffffffffffffffffffffffffffffffffffffffffffff1916148061045c57507f5b5e139f000000000000000000000000000000000000000000000000000000007bffffffffffffffffffffffffffffffffffffffffffffffffffffffff1916827bffffffffffffffffffffffffffffffffffffffffffffffffffffffff1916145b8061046c575061046b82610f78565b5b9050919050565b60606000805461048290612598565b80601f01602080910402602001604051908101604052809291908181526020018280546104ae90612598565b80156104fb5780601f106104d0576101008083540402835291602001916104fb565b820191906000526020600020905b8154815290600101906020018083116104de57829003601f168201915b5050505050905090565b600061051082610fe2565b61054f576040517f08c379a00000000000000000000000000000000000000000000000000000000081526004016105469061230f565b60405180910390fd5b6004600083815260200190815260200160002060009054906101000a900473ffffffffffffffffffffffffffffffffffffffff169050919050565b600061059582610a8f565b90508073ffffffffffffffffffffffffffffffffffffffff168373ffffffffffffffffffffffffffffffffffffffff161415610606576040517f08c379a00000000000000000000000000000000000000000000000000000000081526004016105fd9061234f565b60405180910390fd5b8073ffffffffffffffffffffffffffffffffffffffff1661062561104e565b73ffffffffffffffffffffffffffffffffffffffff16148061065457506106538161064e61104e565b610ec4565b5b610693576040517f08c379a000000000000000000000000000000000000000000000000000000000815260040161068a9061224f565b60405180910390fd5b61069d8383611056565b505050565b6106b36106ad61104e565b8261110f565b6106f2576040517f08c379a00000000000000000000000000000000000000000000000000000000081526004016106e99061236f565b60405180910390fd5b6106fd8383836111ed565b505050565b6000600a60003373ffffffffffffffffffffffffffffffffffffffff1673ffffffffffffffffffffffffffffffffffffffff16815260200190815260200160002060009054906101000a900460ff16610790576040517f08c379a00000000000000000000000000000000000000000000000000000000081526004016107879061214f565b60405180910390fd5b61079a6008611454565b60006107a6600861146a565b90506107b23382611478565b6107bc8184611652565b82600960003373ffffffffffffffffffffffffffffffffffffffff1673ffffffffffffffffffffffffffffffffffffffff168152602001908152602001600020908051906020019061080f929190611aa8565b506000600a60003373ffffffffffffffffffffffffffffffffffffffff1673ffffffffffffffffffffffffffffffffffffffff16815260200190815260200160002060006101000a81548160ff02191690831515021790555080915050919050565b6009602052806000526040600020600091509050805461089090612598565b80601f01602080910402602001604051908101604052809291908181526020018280546108bc90612598565b80156109095780601f106108de57610100808354040283529160200191610909565b820191906000526020600020905b8154815290600101906020018083116108ec57829003601f168201915b505050505081565b600760009054906101000a900473ffffffffffffffffffffffffffffffffffffffff1673ffffffffffffffffffffffffffffffffffffffff163373ffffffffffffffffffffffffffffffffffffffff16146109a1576040517f08c379a00000000000000000000000000000000000000000000000000000000081526004016109989061222f565b60405180910390fd5b60001515600a60008373ffffffffffffffffffffffffffffffffffffffff1673ffffffffffffffffffffffffffffffffffffffff16815260200190815260200160002060009054906101000a900460ff16151514610a34576040517f08c379a0000000000000000000000000000000000000000000000000000000008152600401610a2b906121af565b60405180910390fd5b6001600a60008373ffffffffffffffffffffffffffffffffffffffff1673ffffffffffffffffffffffffffffffffffffffff16815260200190815260200160002060006101000a81548160ff02191690831515021790555050565b6000806002600084815260200190815260200160002060009054906101000a900473ffffffffffffffffffffffffffffffffffffffff169050600073ffffffffffffffffffffffffffffffffffffffff168173ffffffffffffffffffffffffffffffffffffffff161415610b38576040517f08c379a0000000000000000000000000000000000000000000000000000000008152600401610b2f9061228f565b60405180910390fd5b80915050919050565b60008073ffffffffffffffffffffffffffffffffffffffff168273ffffffffffffffffffffffffffffffffffffffff161415610bb2576040517f08c379a0000000000000000000000000000000000000000000000000000000008152600401610ba99061226f565b60405180910390fd5b600360008373ffffffffffffffffffffffffffffffffffffffff1673ffffffffffffffffffffffffffffffffffffffff168152602001908152602001600020549050919050565b606060018054610c0890612598565b80601f0160208091040260200160405190810160405280929190818152602001828054610c3490612598565b8015610c815780601f10610c5657610100808354040283529160200191610c81565b820191906000526020600020905b815481529060010190602001808311610c6457829003601f168201915b5050505050905090565b610c9d610c9661104e565b83836116c6565b5050565b6060600960008373ffffffffffffffffffffffffffffffffffffffff1673ffffffffffffffffffffffffffffffffffffffff1681526020019081526020016000208054610ced90612598565b80601f0160208091040260200160405190810160405280929190818152602001828054610d1990612598565b8015610d665780601f10610d3b57610100808354040283529160200191610d66565b820191906000526020600020905b815481529060010190602001808311610d4957829003601f168201915b50505050509050919050565b6060610d7d82610fe2565b610dbc576040517f08c379a0000000000000000000000000000000000000000000000000000000008152600401610db3906122ef565b60405180910390fd5b6000600660008481526020019081526020016000208054610ddc90612598565b80601f0160208091040260200160405190810160405280929190818152602001828054610e0890612598565b8015610e555780601f10610e2a57610100808354040283529160200191610e55565b820191906000526020600020905b815481529060010190602001808311610e3857829003601f168201915b505050505090506000610e66611833565b9050600081511415610e7c578192505050610ebf565b600082511115610eb1578082604051602001610e999291906120d3565b60405160208183030381529060405292505050610ebf565b610eba8461184a565b925050505b919050565b6000600560008473ffffffffffffffffffffffffffffffffffffffff1673ffffffffffffffffffffffffffffffffffffffff16815260200190815260200160002060008373ffffffffffffffffffffffffffffffffffffffff1673ffffffffffffffffffffffffffffffffffffffff16815260200190815260200160002060009054906101000a900460ff16905092915050565b600a6020528060005260406000206000915054906101000a900460ff1681565b60007f01ffc9a7000000000000000000000000000000000000000000000000000000007bffffffffffffffffffffffffffffffffffffffffffffffffffffffff1916827bffffffffffffffffffffffffffffffffffffffffffffffffffffffff1916149050919050565b60008073ffffffffffffffffffffffffffffffffffffffff166002600084815260200190815260200160002060009054906101000a900473ffffffffffffffffffffffffffffffffffffffff1673ffffffffffffffffffffffffffffffffffffffff1614159050919050565b600033905090565b816004600083815260200190815260200160002060006101000a81548173ffffffffffffffffffffffffffffffffffffffff021916908373ffffffffffffffffffffffffffffffffffffffff160217905550808273ffffffffffffffffffffffffffffffffffffffff166110c983610a8f565b73ffffffffffffffffffffffffffffffffffffffff167f8c5be1e5ebec7d5bd14f71427d1e84f3dd0314c0f7b2291e5b200ac8c7c3b92560405160405180910390a45050565b600061111a82610fe2565b611159576040517f08c379a00000000000000000000000000000000000000000000000000000000081526004016111509061220f565b60405180910390fd5b600061116483610a8f565b90508073ffffffffffffffffffffffffffffffffffffffff168473ffffffffffffffffffffffffffffffffffffffff1614806111a657506111a58185610ec4565b5b806111e457508373ffffffffffffffffffffffffffffffffffffffff166111cc84610505565b73ffffffffffffffffffffffffffffffffffffffff16145b91505092915050565b8273ffffffffffffffffffffffffffffffffffffffff1661120d82610a8f565b73ffffffffffffffffffffffffffffffffffffffff1614611263576040517f08c379a000000000000000000000000000000000000000000000000000000000815260040161125a9061216f565b60405180910390fd5b600073ffffffffffffffffffffffffffffffffffffffff168273ffffffffffffffffffffffffffffffffffffffff1614156112d3576040517f08c379a00000000000000000000000000000000000000000000000000000000081526004016112ca906121cf565b60405180910390fd5b6112de8383836118f1565b6112e9600082611056565b6001600360008573ffffffffffffffffffffffffffffffffffffffff1673ffffffffffffffffffffffffffffffffffffffff168152602001908152602001600020600082825461133991906124ae565b925050819055506001600360008473ffffffffffffffffffffffffffffffffffffffff1673ffffffffffffffffffffffffffffffffffffffff16815260200190815260200160002060008282546113909190612427565b92505081905550816002600083815260200190815260200160002060006101000a81548173ffffffffffffffffffffffffffffffffffffffff021916908373ffffffffffffffffffffffffffffffffffffffff160217905550808273ffffffffffffffffffffffffffffffffffffffff168473ffffffffffffffffffffffffffffffffffffffff167fddf252ad1be2c89b69c2b068fc378daa952ba7f163c4a11628f55a4df523b3ef60405160405180910390a461144f8383836118f6565b505050565b6001816000016000828254019250508190555050565b600081600001549050919050565b600073ffffffffffffffffffffffffffffffffffffffff168273ffffffffffffffffffffffffffffffffffffffff1614156114e8576040517f08c379a00000000000000000000000000000000000000000000000000000000081526004016114df906122cf565b60405180910390fd5b6114f181610fe2565b15611531576040517f08c379a00000000000000000000000000000000000000000000000000000000081526004016115289061218f565b60405180910390fd5b61153d600083836118f1565b6001600360008473ffffffffffffffffffffffffffffffffffffffff1673ffffffffffffffffffffffffffffffffffffffff168152602001908152602001600020600082825461158d9190612427565b92505081905550816002600083815260200190815260200160002060006101000a81548173ffffffffffffffffffffffffffffffffffffffff021916908373ffffffffffffffffffffffffffffffffffffffff160217905550808273ffffffffffffffffffffffffffffffffffffffff16600073ffffffffffffffffffffffffffffffffffffffff167fddf252ad1be2c89b69c2b068fc378daa952ba7f163c4a11628f55a4df523b3ef60405160405180910390a461164e600083836118f6565b5050565b61165b82610fe2565b61169a576040517f08c379a0000000000000000000000000000000000000000000000000000000008152600401611691906122af565b60405180910390fd5b806006600084815260200190815260200160002090805190602001906116c1929190611aa8565b505050565b8173ffffffffffffffffffffffffffffffffffffffff168373ffffffffffffffffffffffffffffffffffffffff161415611735576040517f08c379a000000000000000000000000000000000000000000000000000000000815260040161172c906121ef565b60405180910390fd5b80600560008573ffffffffffffffffffffffffffffffffffffffff1673ffffffffffffffffffffffffffffffffffffffff16815260200190815260200160002060008473ffffffffffffffffffffffffffffffffffffffff1673ffffffffffffffffffffffffffffffffffffffff16815260200190815260200160002060006101000a81548160ff0219169083151502179055508173ffffffffffffffffffffffffffffffffffffffff168373ffffffffffffffffffffffffffffffffffffffff167f17307eab39ab6107e8899845ad3d59bd9653f200f220920489ca2b5937696c31836040516118269190612112565b60405180910390a3505050565b606060405180602001604052806000815250905090565b606061185582610fe2565b611894576040517f08c379a000000000000000000000000000000000000000000000000000000000815260040161188b9061232f565b60405180910390fd5b600061189e611833565b905060008151116118be57604051806020016040528060008152506118e9565b806118c8846118fb565b6040516020016118d99291906120d3565b6040516020818303038152906040525b915050919050565b505050565b505050565b60606000821415611943576040518060400160405280600181526020017f30000000000000000000000000000000000000000000000000000000000000008152509050611aa3565b600082905060005b6000821461197557808061195e906125fb565b915050600a8261196e919061247d565b915061194b565b60008167ffffffffffffffff8111156119b7577f4e487b7100000000000000000000000000000000000000000000000000000000600052604160045260246000fd5b6040519080825280601f01601f1916602001820160405280156119e95781602001600182028036833780820191505090505b5090505b60008514611a9c57600182611a0291906124ae565b9150600a85611a119190612644565b6030611a1d9190612427565b60f81b818381518110611a59577f4e487b7100000000000000000000000000000000000000000000000000000000600052603260045260246000fd5b60200101907effffffffffffffffffffffffffffffffffffffffffffffffffffffffffffff1916908160001a905350600a85611a95919061247d565b94506119ed565b8093505050505b919050565b828054611ab490612598565b90600052602060002090601f016020900481019282611ad65760008555611b1d565b82601f10611aef57805160ff1916838001178555611b1d565b82800160010185558215611b1d579182015b82811115611b1c578251825591602001919060010190611b01565b5b509050611b2a9190611b2e565b5090565b5b80821115611b47576000816000905550600101611b2f565b5090565b6000611b5e611b59846123cf565b6123aa565b905082815260208101848484011115611b7657600080fd5b611b81848285612556565b509392505050565b600081359050611b9881612c12565b92915050565b600081359050611bad81612c29565b92915050565b600081359050611bc281612c40565b92915050565b600082601f830112611bd957600080fd5b8135611be9848260208601611b4b565b91505092915050565b600081359050611c0181612c57565b92915050565b600060208284031215611c1957600080fd5b6000611c2784828501611b89565b91505092915050565b60008060408385031215611c4357600080fd5b6000611c5185828601611b89565b9250506020611c6285828601611b89565b9150509250929050565b600080600060608486031215611c8157600080fd5b6000611c8f86828701611b89565b9350506020611ca086828701611b89565b9250506040611cb186828701611bf2565b9150509250925092565b60008060408385031215611cce57600080fd5b6000611cdc85828601611b89565b9250506020611ced85828601611b9e565b9150509250929050565b60008060408385031215611d0a57600080fd5b6000611d1885828601611b89565b9250506020611d2985828601611bf2565b9150509250929050565b600060208284031215611d4557600080fd5b6000611d5384828501611bb3565b91505092915050565b600060208284031215611d6e57600080fd5b600082013567ffffffffffffffff811115611d8857600080fd5b611d9484828501611bc8565b91505092915050565b600060208284031215611daf57600080fd5b6000611dbd84828501611bf2565b91505092915050565b611dcf816124e2565b82525050565b611dde816124f4565b82525050565b6000611def82612400565b611df9818561240b565b9350611e09818560208601612565565b611e1281612731565b840191505092915050565b6000611e2882612400565b611e32818561241c565b9350611e42818560208601612565565b80840191505092915050565b6000611e5b60278361240b565b9150611e6682612742565b604082019050919050565b6000611e7e60258361240b565b9150611e8982612791565b604082019050919050565b6000611ea1601c8361240b565b9150611eac826127e0565b602082019050919050565b6000611ec460158361240b565b9150611ecf82612809565b602082019050919050565b6000611ee760248361240b565b9150611ef282612832565b604082019050919050565b6000611f0a60198361240b565b9150611f1582612881565b602082019050919050565b6000611f2d602c8361240b565b9150611f38826128aa565b604082019050919050565b6000611f5060198361240b565b9150611f5b826128f9565b602082019050919050565b6000611f7360388361240b565b9150611f7e82612922565b604082019050919050565b6000611f96602a8361240b565b9150611fa182612971565b604082019050919050565b6000611fb960298361240b565b9150611fc4826129c0565b604082019050919050565b6000611fdc602e8361240b565b9150611fe782612a0f565b604082019050919050565b6000611fff60208361240b565b915061200a82612a5e565b602082019050919050565b600061202260318361240b565b915061202d82612a87565b604082019050919050565b6000612045602c8361240b565b915061205082612ad6565b604082019050919050565b6000612068602f8361240b565b915061207382612b25565b604082019050919050565b600061208b60218361240b565b915061209682612b74565b604082019050919050565b60006120ae60318361240b565b91506120b982612bc3565b604082019050919050565b6120cd8161254c565b82525050565b60006120df8285611e1d565b91506120eb8284611e1d565b91508190509392505050565b600060208201905061210c6000830184611dc6565b92915050565b60006020820190506121276000830184611dd5565b92915050565b600060208201905081810360008301526121478184611de4565b905092915050565b6000602082019050818103600083015261216881611e4e565b9050919050565b6000602082019050818103600083015261218881611e71565b9050919050565b600060208201905081810360008301526121a881611e94565b9050919050565b600060208201905081810360008301526121c881611eb7565b9050919050565b600060208201905081810360008301526121e881611eda565b9050919050565b6000602082019050818103600083015261220881611efd565b9050919050565b6000602082019050818103600083015261222881611f20565b9050919050565b6000602082019050818103600083015261224881611f43565b9050919050565b6000602082019050818103600083015261226881611f66565b9050919050565b6000602082019050818103600083015261228881611f89565b9050919050565b600060208201905081810360008301526122a881611fac565b9050919050565b600060208201905081810360008301526122c881611fcf565b9050919050565b600060208201905081810360008301526122e881611ff2565b9050919050565b6000602082019050818103600083015261230881612015565b9050919050565b6000602082019050818103600083015261232881612038565b9050919050565b600060208201905081810360008301526123488161205b565b9050919050565b600060208201905081810360008301526123688161207e565b9050919050565b60006020820190508181036000830152612388816120a1565b9050919050565b60006020820190506123a460008301846120c4565b92915050565b60006123b46123c5565b90506123c082826125ca565b919050565b6000604051905090565b600067ffffffffffffffff8211156123ea576123e9612702565b5b6123f382612731565b9050602081019050919050565b600081519050919050565b600082825260208201905092915050565b600081905092915050565b60006124328261254c565b915061243d8361254c565b9250827fffffffffffffffffffffffffffffffffffffffffffffffffffffffffffffffff0382111561247257612471612675565b5b828201905092915050565b60006124888261254c565b91506124938361254c565b9250826124a3576124a26126a4565b5b828204905092915050565b60006124b98261254c565b91506124c48361254c565b9250828210156124d7576124d6612675565b5b828203905092915050565b60006124ed8261252c565b9050919050565b60008115159050919050565b60007fffffffff0000000000000000000000000000000000000000000000000000000082169050919050565b600073ffffffffffffffffffffffffffffffffffffffff82169050919050565b6000819050919050565b82818337600083830152505050565b60005b83811015612583578082015181840152602081019050612568565b83811115612592576000848401525b50505050565b600060028204905060018216806125b057607f821691505b602082108114156125c4576125c36126d3565b5b50919050565b6125d382612731565b810181811067ffffffffffffffff821117156125f2576125f1612702565b5b80604052505050565b60006126068261254c565b91507fffffffffffffffffffffffffffffffffffffffffffffffffffffffffffffffff82141561263957612638612675565b5b600182019050919050565b600061264f8261254c565b915061265a8361254c565b92508261266a576126696126a4565b5b828206905092915050565b7f4e487b7100000000000000000000000000000000000000000000000000000000600052601160045260246000fd5b7f4e487b7100000000000000000000000000000000000000000000000000000000600052601260045260246000fd5b7f4e487b7100000000000000000000000000000000000000000000000000000000600052602260045260246000fd5b7f4e487b7100000000000000000000000000000000000000000000000000000000600052604160045260246000fd5b6000601f19601f8301169050919050565b7f446567726565206973206e6f7420697373756564206f7220616c72656164792060008201527f636c61696d656400000000000000000000000000000000000000000000000000602082015250565b7f4552433732313a207472616e736665722066726f6d20696e636f72726563742060008201527f6f776e6572000000000000000000000000000000000000000000000000000000602082015250565b7f4552433732313a20746f6b656e20616c7265616479206d696e74656400000000600082015250565b7f416c726561647920646567726565206973737565640000000000000000000000600082015250565b7f4552433732313a207472616e7366657220746f20746865207a65726f2061646460008201527f7265737300000000000000000000000000000000000000000000000000000000602082015250565b7f4552433732313a20617070726f766520746f2063616c6c657200000000000000600082015250565b7f4552433732313a206f70657261746f7220717565727920666f72206e6f6e657860008201527f697374656e7420746f6b656e0000000000000000000000000000000000000000602082015250565b7f4f6e6c79206f776e65722063616e206973737565205342547300000000000000600082015250565b7f4552433732313a20617070726f76652063616c6c6572206973206e6f74206f7760008201527f6e6572206e6f7220617070726f76656420666f7220616c6c0000000000000000602082015250565b7f4552433732313a2062616c616e636520717565727920666f7220746865207a6560008201527f726f206164647265737300000000000000000000000000000000000000000000602082015250565b7f4552433732313a206f776e657220717565727920666f72206e6f6e657869737460008201527f656e7420746f6b656e0000000000000000000000000000000000000000000000602082015250565b7f45524337323155524953746f726167653a2055524920736574206f66206e6f6e60008201527f6578697374656e7420746f6b656e000000000000000000000000000000000000602082015250565b7f4552433732313a206d696e7420746f20746865207a65726f2061646472657373600082015250565b7f45524337323155524953746f726167653a2055524920717565727920666f722060008201527f6e6f6e6578697374656e7420746f6b656e000000000000000000000000000000602082015250565b7f4552433732313a20617070726f76656420717565727920666f72206e6f6e657860008201527f697374656e7420746f6b656e0000000000000000000000000000000000000000602082015250565b7f4552433732314d657461646174613a2055524920717565727920666f72206e6f60008201527f6e6578697374656e7420746f6b656e0000000000000000000000000000000000602082015250565b7f4552433732313a20617070726f76616c20746f2063757272656e74206f776e6560008201527f7200000000000000000000000000000000000000000000000000000000000000602082015250565b7f4552433732313a207472616e736665722063616c6c6572206973206e6f74206f60008201527f776e6572206e6f7220617070726f766564000000000000000000000000000000602082015250565b612c1b816124e2565b8114612c2657600080fd5b50565b612c32816124f4565b8114612c3d57600080fd5b50565b612c4981612500565b8114612c5457600080fd5b50565b612c608161254c565b8114612c6b57600080fd5b5056fea26469706673582212208bc460b52801a98d1d2aa7a3a748021cbca4e0ad6af12ff932ae8c6b0f06057064736f6c63430008040033",
  "linkReferences": {},
  "deployedLinkReferences": {}
}