{
  "_format": "hh-sol-artifact-1",
  "contractName": "ERC721",
  "sourceName": "contracts/LinkDOTSBT.sol",
  "abi": [
    {
      "inputs": [
        {
          "internalType": "string",
          "name": "name_",
          "type": "string"
        },
        {
          "internalType": "string",
          "name": "symbol_",
          "type": "string"
        }
      ],
      "stateMutability": "nonpayable",
      "type": "constructor"
    },
    {
      "anonymous": false,
      "inputs": [
        {
          "indexed": true,
          "internalType": "address",
          "name": "owner",
          "type": "address"
        },
        {
          "indexed": true,
          "internalType": "address",
          "name": "approved",
          "type": "address"
        },
        {
          "indexed": true,
          "internalType": "uint256",
          "name": "tokenId",
          "type": "uint256"
        }
      ],
      "name": "Approval",
      "type": "event"
    },
    {
      "anonymous": false,
      "inputs": [
        {
          "indexed": true,
          "internalType": "address",
          "name": "owner",
          "type": "address"
        },
        {
          "indexed": true,
          "internalType": "address",
          "name": "operator",
          "type": "address"
        },
        {
          "indexed": false,
          "internalType": "bool",
          "name": "approved",
          "type": "bool"
        }
      ],
      "name": "ApprovalForAll",
      "type": "event"
    },
    {
      "anonymous": false,
      "inputs": [
        {
          "indexed": true,
          "internalType": "address",
          "name": "from",
          "type": "address"
        },
        {
          "indexed": true,
          "internalType": "address",
          "name": "to",
          "type": "address"
        },
        {
          "indexed": true,
          "internalType": "uint256",
          "name": "tokenId",
          "type": "uint256"
        }
      ],
      "name": "Transfer",
      "type": "event"
    },
    {
      "inputs": [
        {
          "internalType": "address",
          "name": "to",
          "type": "address"
        },
        {
          "internalType": "uint256",
          "name": "tokenId",
          "type": "uint256"
        }
      ],
      "name": "approve",
      "outputs": [],
      "stateMutability": "nonpayable",
      "type": "function"
    },
    {
      "inputs": [
        {
          "internalType": "address",
          "name": "owner",
          "type": "address"
        }
      ],
      "name": "balanceOf",
      "outputs": [
        {
          "internalType": "uint256",
          "name": "",
          "type": "uint256"
        }
      ],
      "stateMutability": "view",
      "type": "function"
    },
    {
      "inputs": [
        {
          "internalType": "uint256",
          "name": "tokenId",
          "type": "uint256"
        }
      ],
      "name": "getApproved",
      "outputs": [
        {
          "internalType": "address",
          "name": "",
          "type": "address"
        }
      ],
      "stateMutability": "view",
      "type": "function"
    },
    {
      "inputs": [
        {
          "internalType": "address",
          "name": "owner",
          "type": "address"
        },
        {
          "internalType": "address",
          "name": "operator",
          "type": "address"
        }
      ],
      "name": "isApprovedForAll",
      "outputs": [
        {
          "internalType": "bool",
          "name": "",
          "type": "bool"
        }
      ],
      "stateMutability": "view",
      "type": "function"
    },
    {
      "inputs": [],
      "name": "name",
      "outputs": [
        {
          "internalType": "string",
          "name": "",
          "type": "string"
        }
      ],
      "stateMutability": "view",
      "type": "function"
    },
    {
      "inputs": [
        {
          "internalType": "uint256",
          "name": "tokenId",
          "type": "uint256"
        }
      ],
      "name": "ownerOf",
      "outputs": [
        {
          "internalType": "address",
          "name": "",
          "type": "address"
        }
      ],
      "stateMutability": "view",
      "type": "function"
    },
    {
      "inputs": [
        {
          "internalType": "address",
          "name": "operator",
          "type": "address"
        },
        {
          "internalType": "bool",
          "name": "approved",
          "type": "bool"
        }
      ],
      "name": "setApprovalForAll",
      "outputs": [],
      "stateMutability": "nonpayable",
      "type": "function"
    },
    {
      "inputs": [
        {
          "internalType": "bytes4",
          "name": "interfaceId",
          "type": "bytes4"
        }
      ],
      "name": "supportsInterface",
      "outputs": [
        {
          "internalType": "bool",
          "name": "",
          "type": "bool"
        }
      ],
      "stateMutability": "view",
      "type": "function"
    },
    {
      "inputs": [],
      "name": "symbol",
      "outputs": [
        {
          "internalType": "string",
          "name": "",
          "type": "string"
        }
      ],
      "stateMutability": "view",
      "type": "function"
    },
    {
      "inputs": [
        {
          "internalType": "uint256",
          "name": "tokenId",
          "type": "uint256"
        }
      ],
      "name": "tokenURI",
      "outputs": [
        {
          "internalType": "string",
          "name": "",
          "type": "string"
        }
      ],
      "stateMutability": "view",
      "type": "function"
    },
    {
      "inputs": [
        {
          "internalType": "address",
          "name": "from",
          "type": "address"
        },
        {
          "internalType": "address",
          "name": "to",
          "type": "address"
        },
        {
          "internalType": "uint256",
          "name": "tokenId",
          "type": "uint256"
        }
      ],
      "name": "transferFrom",
      "outputs": [],
      "stateMutability": "nonpayable",
      "type": "function"
    }
  ],
  "bytecode": "0x60806040523480156200001157600080fd5b506040516200213e3803806200213e833981810160405281019062000037919062000193565b81600090805190602001906200004f92919062000071565b5080600190805190602001906200006892919062000071565b50505062000376565b8280546200007f906200029b565b90600052602060002090601f016020900481019282620000a35760008555620000ef565b82601f10620000be57805160ff1916838001178555620000ef565b82800160010185558215620000ef579182015b82811115620000ee578251825591602001919060010190620000d1565b5b509050620000fe919062000102565b5090565b5b808211156200011d57600081600090555060010162000103565b5090565b60006200013862000132846200022f565b62000206565b9050828152602081018484840111156200015157600080fd5b6200015e84828562000265565b509392505050565b600082601f8301126200017857600080fd5b81516200018a84826020860162000121565b91505092915050565b60008060408385031215620001a757600080fd5b600083015167ffffffffffffffff811115620001c257600080fd5b620001d08582860162000166565b925050602083015167ffffffffffffffff811115620001ee57600080fd5b620001fc8582860162000166565b9150509250929050565b60006200021262000225565b9050620002208282620002d1565b919050565b6000604051905090565b600067ffffffffffffffff8211156200024d576200024c62000336565b5b620002588262000365565b9050602081019050919050565b60005b838110156200028557808201518184015260208101905062000268565b8381111562000295576000848401525b50505050565b60006002820490506001821680620002b457607f821691505b60208210811415620002cb57620002ca62000307565b5b50919050565b620002dc8262000365565b810181811067ffffffffffffffff82111715620002fe57620002fd62000336565b5b80604052505050565b7f4e487b7100000000000000000000000000000000000000000000000000000000600052602260045260246000fd5b7f4e487b7100000000000000000000000000000000000000000000000000000000600052604160045260246000fd5b6000601f19601f8301169050919050565b611db880620003866000396000f3fe608060405234801561001057600080fd5b50600436106100a95760003560e01c80636352211e116100715780636352211e1461016457806370a082311461019457806395d89b41146101c4578063a22cb465146101e2578063c87b56dd146101fe578063e985e9c51461022e576100a9565b806301ffc9a7146100ae57806306fdde03146100de578063081812fc146100fc578063095ea7b31461012c57806323b872dd14610148575b600080fd5b6100c860048036038101906100c391906112b3565b61025e565b6040516100d5919061155c565b60405180910390f35b6100e6610340565b6040516100f39190611577565b60405180910390f35b610116600480360381019061011191906112dc565b6103d2565b6040516101239190611541565b60405180910390f35b61014660048036038101906101419190611277565b610457565b005b610162600480360381019061015d91906111ec565b61056f565b005b61017e600480360381019061017991906112dc565b6105cf565b60405161018b9190611541565b60405180910390f35b6101ae60048036038101906101a99190611187565b610681565b6040516101bb91906116f9565b60405180910390f35b6101cc610739565b6040516101d99190611577565b60405180910390f35b6101fc60048036038101906101f7919061123b565b6107cb565b005b610218600480360381019061021391906112dc565b6107e1565b6040516102259190611577565b60405180910390f35b610248600480360381019061024391906111b0565b610888565b604051610255919061155c565b60405180910390f35b60007f7aa5391d000000000000000000000000000000000000000000000000000000007bffffffffffffffffffffffffffffffffffffffffffffffffffffffff1916827bffffffffffffffffffffffffffffffffffffffffffffffffffffffff1916148061032957507f5b5e139f000000000000000000000000000000000000000000000000000000007bffffffffffffffffffffffffffffffffffffffffffffffffffffffff1916827bffffffffffffffffffffffffffffffffffffffffffffffffffffffff1916145b8061033957506103388261091c565b5b9050919050565b60606000805461034f9061189d565b80601f016020809104026020016040519081016040528092919081815260200182805461037b9061189d565b80156103c85780601f1061039d576101008083540402835291602001916103c8565b820191906000526020600020905b8154815290600101906020018083116103ab57829003601f168201915b5050505050905090565b60006103dd82610986565b61041c576040517f08c379a000000000000000000000000000000000000000000000000000000000815260040161041390611679565b60405180910390fd5b6004600083815260200190815260200160002060009054906101000a900473ffffffffffffffffffffffffffffffffffffffff169050919050565b6000610462826105cf565b90508073ffffffffffffffffffffffffffffffffffffffff168373ffffffffffffffffffffffffffffffffffffffff1614156104d3576040517f08c379a00000000000000000000000000000000000000000000000000000000081526004016104ca906116b9565b60405180910390fd5b8073ffffffffffffffffffffffffffffffffffffffff166104f26109f2565b73ffffffffffffffffffffffffffffffffffffffff16148061052157506105208161051b6109f2565b610888565b5b610560576040517f08c379a000000000000000000000000000000000000000000000000000000000815260040161055790611619565b60405180910390fd5b61056a83836109fa565b505050565b61058061057a6109f2565b82610ab3565b6105bf576040517f08c379a00000000000000000000000000000000000000000000000000000000081526004016105b6906116d9565b60405180910390fd5b6105ca838383610b91565b505050565b6000806002600084815260200190815260200160002060009054906101000a900473ffffffffffffffffffffffffffffffffffffffff169050600073ffffffffffffffffffffffffffffffffffffffff168173ffffffffffffffffffffffffffffffffffffffff161415610678576040517f08c379a000000000000000000000000000000000000000000000000000000000815260040161066f90611659565b60405180910390fd5b80915050919050565b60008073ffffffffffffffffffffffffffffffffffffffff168273ffffffffffffffffffffffffffffffffffffffff1614156106f2576040517f08c379a00000000000000000000000000000000000000000000000000000000081526004016106e990611639565b60405180910390fd5b600360008373ffffffffffffffffffffffffffffffffffffffff1673ffffffffffffffffffffffffffffffffffffffff168152602001908152602001600020549050919050565b6060600180546107489061189d565b80601f01602080910402602001604051908101604052809291908181526020018280546107749061189d565b80156107c15780601f10610796576101008083540402835291602001916107c1565b820191906000526020600020905b8154815290600101906020018083116107a457829003601f168201915b5050505050905090565b6107dd6107d66109f2565b8383610df8565b5050565b60606107ec82610986565b61082b576040517f08c379a000000000000000000000000000000000000000000000000000000000815260040161082290611699565b60405180910390fd5b6000610835610f65565b905060008151116108555760405180602001604052806000815250610880565b8061085f84610f7c565b60405160200161087092919061151d565b6040516020818303038152906040525b915050919050565b6000600560008473ffffffffffffffffffffffffffffffffffffffff1673ffffffffffffffffffffffffffffffffffffffff16815260200190815260200160002060008373ffffffffffffffffffffffffffffffffffffffff1673ffffffffffffffffffffffffffffffffffffffff16815260200190815260200160002060009054906101000a900460ff16905092915050565b60007f01ffc9a7000000000000000000000000000000000000000000000000000000007bffffffffffffffffffffffffffffffffffffffffffffffffffffffff1916827bffffffffffffffffffffffffffffffffffffffffffffffffffffffff1916149050919050565b60008073ffffffffffffffffffffffffffffffffffffffff166002600084815260200190815260200160002060009054906101000a900473ffffffffffffffffffffffffffffffffffffffff1673ffffffffffffffffffffffffffffffffffffffff1614159050919050565b600033905090565b816004600083815260200190815260200160002060006101000a81548173ffffffffffffffffffffffffffffffffffffffff021916908373ffffffffffffffffffffffffffffffffffffffff160217905550808273ffffffffffffffffffffffffffffffffffffffff16610a6d836105cf565b73ffffffffffffffffffffffffffffffffffffffff167f8c5be1e5ebec7d5bd14f71427d1e84f3dd0314c0f7b2291e5b200ac8c7c3b92560405160405180910390a45050565b6000610abe82610986565b610afd576040517f08c379a0000000000000000000000000000000000000000000000000000000008152600401610af4906115f9565b60405180910390fd5b6000610b08836105cf565b90508073ffffffffffffffffffffffffffffffffffffffff168473ffffffffffffffffffffffffffffffffffffffff161480610b4a5750610b498185610888565b5b80610b8857508373ffffffffffffffffffffffffffffffffffffffff16610b70846103d2565b73ffffffffffffffffffffffffffffffffffffffff16145b91505092915050565b8273ffffffffffffffffffffffffffffffffffffffff16610bb1826105cf565b73ffffffffffffffffffffffffffffffffffffffff1614610c07576040517f08c379a0000000000000000000000000000000000000000000000000000000008152600401610bfe90611599565b60405180910390fd5b600073ffffffffffffffffffffffffffffffffffffffff168273ffffffffffffffffffffffffffffffffffffffff161415610c77576040517f08c379a0000000000000000000000000000000000000000000000000000000008152600401610c6e906115b9565b60405180910390fd5b610c82838383611129565b610c8d6000826109fa565b6001600360008573ffffffffffffffffffffffffffffffffffffffff1673ffffffffffffffffffffffffffffffffffffffff1681526020019081526020016000206000828254610cdd91906117c2565b925050819055506001600360008473ffffffffffffffffffffffffffffffffffffffff1673ffffffffffffffffffffffffffffffffffffffff1681526020019081526020016000206000828254610d34919061173b565b92505081905550816002600083815260200190815260200160002060006101000a81548173ffffffffffffffffffffffffffffffffffffffff021916908373ffffffffffffffffffffffffffffffffffffffff160217905550808273ffffffffffffffffffffffffffffffffffffffff168473ffffffffffffffffffffffffffffffffffffffff167fddf252ad1be2c89b69c2b068fc378daa952ba7f163c4a11628f55a4df523b3ef60405160405180910390a4610df383838361112e565b505050565b8173ffffffffffffffffffffffffffffffffffffffff168373ffffffffffffffffffffffffffffffffffffffff161415610e67576040517f08c379a0000000000000000000000000000000000000000000000000000000008152600401610e5e906115d9565b60405180910390fd5b80600560008573ffffffffffffffffffffffffffffffffffffffff1673ffffffffffffffffffffffffffffffffffffffff16815260200190815260200160002060008473ffffffffffffffffffffffffffffffffffffffff1673ffffffffffffffffffffffffffffffffffffffff16815260200190815260200160002060006101000a81548160ff0219169083151502179055508173ffffffffffffffffffffffffffffffffffffffff168373ffffffffffffffffffffffffffffffffffffffff167f17307eab39ab6107e8899845ad3d59bd9653f200f220920489ca2b5937696c3183604051610f58919061155c565b60405180910390a3505050565b606060405180602001604052806000815250905090565b60606000821415610fc4576040518060400160405280600181526020017f30000000000000000000000000000000000000000000000000000000000000008152509050611124565b600082905060005b60008214610ff6578080610fdf906118cf565b915050600a82610fef9190611791565b9150610fcc565b60008167ffffffffffffffff811115611038577f4e487b7100000000000000000000000000000000000000000000000000000000600052604160045260246000fd5b6040519080825280601f01601f19166020018201604052801561106a5781602001600182028036833780820191505090505b5090505b6000851461111d5760018261108391906117c2565b9150600a856110929190611918565b603061109e919061173b565b60f81b8183815181106110da577f4e487b7100000000000000000000000000000000000000000000000000000000600052603260045260246000fd5b60200101907effffffffffffffffffffffffffffffffffffffffffffffffffffffffffffff1916908160001a905350600a856111169190611791565b945061106e565b8093505050505b919050565b505050565b505050565b60008135905061114281611d26565b92915050565b60008135905061115781611d3d565b92915050565b60008135905061116c81611d54565b92915050565b60008135905061118181611d6b565b92915050565b60006020828403121561119957600080fd5b60006111a784828501611133565b91505092915050565b600080604083850312156111c357600080fd5b60006111d185828601611133565b92505060206111e285828601611133565b9150509250929050565b60008060006060848603121561120157600080fd5b600061120f86828701611133565b935050602061122086828701611133565b925050604061123186828701611172565b9150509250925092565b6000806040838503121561124e57600080fd5b600061125c85828601611133565b925050602061126d85828601611148565b9150509250929050565b6000806040838503121561128a57600080fd5b600061129885828601611133565b92505060206112a985828601611172565b9150509250929050565b6000602082840312156112c557600080fd5b60006112d38482850161115d565b91505092915050565b6000602082840312156112ee57600080fd5b60006112fc84828501611172565b91505092915050565b61130e816117f6565b82525050565b61131d81611808565b82525050565b600061132e82611714565b611338818561171f565b935061134881856020860161186a565b611351816119d6565b840191505092915050565b600061136782611714565b6113718185611730565b935061138181856020860161186a565b80840191505092915050565b600061139a60258361171f565b91506113a5826119e7565b604082019050919050565b60006113bd60248361171f565b91506113c882611a36565b604082019050919050565b60006113e060198361171f565b91506113eb82611a85565b602082019050919050565b6000611403602c8361171f565b915061140e82611aae565b604082019050919050565b600061142660388361171f565b915061143182611afd565b604082019050919050565b6000611449602a8361171f565b915061145482611b4c565b604082019050919050565b600061146c60298361171f565b915061147782611b9b565b604082019050919050565b600061148f602c8361171f565b915061149a82611bea565b604082019050919050565b60006114b2602f8361171f565b91506114bd82611c39565b604082019050919050565b60006114d560218361171f565b91506114e082611c88565b604082019050919050565b60006114f860318361171f565b915061150382611cd7565b604082019050919050565b61151781611860565b82525050565b6000611529828561135c565b9150611535828461135c565b91508190509392505050565b60006020820190506115566000830184611305565b92915050565b60006020820190506115716000830184611314565b92915050565b600060208201905081810360008301526115918184611323565b905092915050565b600060208201905081810360008301526115b28161138d565b9050919050565b600060208201905081810360008301526115d2816113b0565b9050919050565b600060208201905081810360008301526115f2816113d3565b9050919050565b60006020820190508181036000830152611612816113f6565b9050919050565b6000602082019050818103600083015261163281611419565b9050919050565b600060208201905081810360008301526116528161143c565b9050919050565b600060208201905081810360008301526116728161145f565b9050919050565b6000602082019050818103600083015261169281611482565b9050919050565b600060208201905081810360008301526116b2816114a5565b9050919050565b600060208201905081810360008301526116d2816114c8565b9050919050565b600060208201905081810360008301526116f2816114eb565b9050919050565b600060208201905061170e600083018461150e565b92915050565b600081519050919050565b600082825260208201905092915050565b600081905092915050565b600061174682611860565b915061175183611860565b9250827fffffffffffffffffffffffffffffffffffffffffffffffffffffffffffffffff0382111561178657611785611949565b5b828201905092915050565b600061179c82611860565b91506117a783611860565b9250826117b7576117b6611978565b5b828204905092915050565b60006117cd82611860565b91506117d883611860565b9250828210156117eb576117ea611949565b5b828203905092915050565b600061180182611840565b9050919050565b60008115159050919050565b60007fffffffff0000000000000000000000000000000000000000000000000000000082169050919050565b600073ffffffffffffffffffffffffffffffffffffffff82169050919050565b6000819050919050565b60005b8381101561188857808201518184015260208101905061186d565b83811115611897576000848401525b50505050565b600060028204905060018216806118b557607f821691505b602082108114156118c9576118c86119a7565b5b50919050565b60006118da82611860565b91507fffffffffffffffffffffffffffffffffffffffffffffffffffffffffffffffff82141561190d5761190c611949565b5b600182019050919050565b600061192382611860565b915061192e83611860565b92508261193e5761193d611978565b5b828206905092915050565b7f4e487b7100000000000000000000000000000000000000000000000000000000600052601160045260246000fd5b7f4e487b7100000000000000000000000000000000000000000000000000000000600052601260045260246000fd5b7f4e487b7100000000000000000000000000000000000000000000000000000000600052602260045260246000fd5b6000601f19601f8301169050919050565b7f4552433732313a207472616e736665722066726f6d20696e636f72726563742060008201527f6f776e6572000000000000000000000000000000000000000000000000000000602082015250565b7f4552433732313a207472616e7366657220746f20746865207a65726f2061646460008201527f7265737300000000000000000000000000000000000000000000000000000000602082015250565b7f4552433732313a20617070726f766520746f2063616c6c657200000000000000600082015250565b7f4552433732313a206f70657261746f7220717565727920666f72206e6f6e657860008201527f697374656e7420746f6b656e0000000000000000000000000000000000000000602082015250565b7f4552433732313a20617070726f76652063616c6c6572206973206e6f74206f7760008201527f6e6572206e6f7220617070726f76656420666f7220616c6c0000000000000000602082015250565b7f4552433732313a2062616c616e636520717565727920666f7220746865207a6560008201527f726f206164647265737300000000000000000000000000000000000000000000602082015250565b7f4552433732313a206f776e657220717565727920666f72206e6f6e657869737460008201527f656e7420746f6b656e0000000000000000000000000000000000000000000000602082015250565b7f4552433732313a20617070726f76656420717565727920666f72206e6f6e657860008201527f697374656e7420746f6b656e0000000000000000000000000000000000000000602082015250565b7f4552433732314d657461646174613a2055524920717565727920666f72206e6f60008201527f6e6578697374656e7420746f6b656e0000000000000000000000000000000000602082015250565b7f4552433732313a20617070726f76616c20746f2063757272656e74206f776e6560008201527f7200000000000000000000000000000000000000000000000000000000000000602082015250565b7f4552433732313a207472616e736665722063616c6c6572206973206e6f74206f60008201527f776e6572206e6f7220617070726f766564000000000000000000000000000000602082015250565b611d2f816117f6565b8114611d3a57600080fd5b50565b611d4681611808565b8114611d5157600080fd5b50565b611d5d81611814565b8114611d6857600080fd5b50565b611d7481611860565b8114611d7f57600080fd5b5056fea2646970667358221220f2bc351cb75e676ed3991d51af944b5961ea3d651938895b614edb80d496e05b64736f6c63430008040033",
  "linkReferences": {},
  "deployedLinkReferences": {}
}